:020000040800F2
:10000000D014002045020008B33A0008AD260008CD
:10001000B13A0008A90300084B5F00080000000087
:1000200000000000000000000000000091440008F3
:10003000E303000800000000D73F000893440008D5
:100040005F0200085F0200085F0200085F0200080C
:100050005F0200085F020008C10500085906000899
:100060005F0200085F0200085F0200085F020008EC
:100070005F020008AD0300085F0200085F0200088D
:100080005F0200085F0200085F0200085F020008CC
:10009000D55E00085F0200085F020008F106000854
:1000A0005F0200085F0200085F0200085F020008AC
:1000B0005F0200085F0200085F0200085F0200089C
:1000C0005F0200085F0200085F0200085F0200088C
:1000D0005F0200085F0200085F0200085F0200087C
:1000E0005F0200085F0200085F0200085F0200086C
:1000F0005F0200085F0200085F0200085F0200085C
:100100005F0200085F0200085F0200085F0200084B
:100110005F0200085F0200085F0200085F0200083B
:100120005F0200085F0200085F0200085F0200082B
:1001300000F002F800F05CF80AA090E8000C82449D
:100140008344AAF10107DA4501D100F051F8AFF27A
:10015000090EBAE80F0013F0010F18BFFB1A43F0A5
:10016000010318475C9F00007C9F00000A444FF089
:10017000000C10F8013B13F0070408BF10F8014B06
:100180001D1108BF10F8015B641E05D010F8016B4B
:10019000641E01F8016BF9D113F0080F1EBF10F8AF
:1001A000014BAD1C0C1B09D16D1E58BF01F801CBD2
:1001B000FAD505E014F8016B01F8016B6D1EF9D555
:1001C0009142D6D37047000000230024002500266A
:1001D000103A28BF78C1FBD8520728BF30C148BFAA
:1001E0000B6070471FB500F062F81FBD10B510BD61
:1001F00000F0A4F81146FFF7F5FF06F0EBF900F068
:10020000C2F803B4FFF7F2FF03BC00F0C7F8000028
:100210000B49D1F800C04A685CF8043B10681844E8
:1002200042F8040B8C4528BFA1F1DC0C8A4228BFA0
:10023000A1F1DC02C1F800C04A6020F00040704724
:10024000640E00200948804709480047FEE7FEE7A2
:10025000FEE7FEE7FEE7FEE7FEE7FEE7FEE7FEE776
:1002600004480549054A064B704700000F45000841
:1002700031010008D00E0020D0140020D010002042
:10028000D01000200B4910B5A1F17C020A4CC2E944
:100290003712372106E000EB104342F82130074BBC
:1002A00000FB03400B1EA1F10101F4DC10BD012095
:1002B000E8E70000040E0020E119D666CD0D01002C
:1002C0004FF0000200B5134694469646203922BFEF
:1002D000A0E80C50A0E80C50B1F12001BFF4F7AF3A
:1002E000090728BFA0E80C5048BF0CC05DF804EB1C
:1002F000890028BF40F8042B08BF704748BF20F88A
:10030000022B11F0804F18BF00F8012B7047704787
:100310007047704710B500F009F8006810BD10B5BF
:10032000044600F003F8046010BD00000048704768
:100330006C0E0020004870476C0E00207546FFF7D9
:10034000F9FFAE4605006946534620F00700854692
:1003500018B020B5FFF784FFBDE820404FF000063D
:100360004FF000074FF000084FF0000B21F007019D
:10037000AC46ACE8C009ACE8C009ACE8C009ACE8E0
:10038000C0098D46704710B50446AFF30080204683
:10039000BDE81040FFF735BF704700000149182045
:1003A000ABBEFEE726000200FEE70000014800F0B9
:1003B00029BB0000400A002030B590F840500124CD
:1003C000AC40C56B6C60046863604368102B0368C5
:1003D00003D099600068C26030BD9A600068C16057
:1003E00030BD704702490022B1F90600CA8070474B
:1003F000600100207FB500200390C02000900E48CF
:10040000019001200D4D02906946284600F0A6FC9F
:1004100003220121172000F013FE172000F002FE36
:100420004021284600F096FD054C8021A07028460A
:1004300000F090FDE0707FBD000021100008014039
:100440006001002070B50025194C002810DD60788F
:1004500008B1012822D1A0880121401C80B2A080CF
:10046000617003281AD34F2004F0E6F9022010E04F
:1004700014DA607808B1032810D1A0880321401C49
:1004800080B2A0806170032808D3502004F0D4F912
:1004900004206070A580322000F04EFC00F064FD66
:1004A000E168411AC82902D96570A580E06070BD75
:1004B0007C01002070B51A4C0025002821780FDD42
:1004C00009B1012921D160880121401C80B26080DE
:1004D0002170032819D3522004F0AEF902200FE056
:1004E00013DA09B1032910D160880321401C80B2BE
:1004F00060802170032808D3512004F09DF9042066
:1005000020706580322000F017FC00F02DFDA168FE
:10051000411AC82902D925706580A06070BD00000D
:100520007C01002002490022B1F904008A80704752
:100530006001002030B51E4885B0816941F004019A
:100540008161816901F004010491816941F0010137
:1005500081618069184D00F0010004900020039033
:10056000032000901348019001200290694628461C
:1005700000F0F4FB01221146062000F061FD062088
:1005800000F050FD02220121072000F059FD072054
:1005900000F048FD0121284600F0DCFC074C022158
:1005A0002070284600F0D6FC607005B030BD000019
:1005B00000100240000021100008014060010020EE
:1005C00070B5224D2868C0072FD0214E012130463A
:1005D00000F0C0FC04460221304600F0BBFC1D497F
:1005E0000A78944202D14B7898421CD04B7843EA67
:1005F000420212F0FF0340EA4402D2B206D0012BBD
:1006000014D0022B17D0032B0BD119E0012A02D0F2
:10061000022A03D005E08A88521C01E08A88521E13
:100620008A800C7048700120286070BD032AF2D0C7
:10063000002AF3D0F5E7002AEDD0032AEED0F0E748
:10064000022AE8D0012AE9D0EBE7000014040140B7
:10065000000801406001002070B5224D2868800725
:100660002FD5214E0121304600F074FC04460221B2
:10067000304600F06FFC1D490A78944202D14B7855
:1006800098421CD04B7843EA420212F0FF0340EA42
:100690004402D2B206D0012B14D0022B17D0032B68
:1006A0000BD119E0012A02D0022A03D005E08A8882
:1006B000521C01E08A88521E8A800C704870022009
:1006C000286070BD032AF2D0002AF3D0F5E7002A93
:1006D000EDD0032AEED0F0E7022AE8D0012AE9D0D3
:1006E000EBE7000014040140000801406001002015
:1006F0002DE9F041434E3068434F444C40062ED51F
:100700004021384600F026FC05468021384600F09E
:1007100021FCA2780146954202D1E07881421CD0AA
:10072000E07840EA420010F0FF0241EA4500C0B222
:1007300006D0012A36D0022A39D0032A0BD13BE059
:10074000012802D0022803D005E0E088401C01E027
:10075000E088401EE080A570E17040203060306885
:1007600000063DD54021384600F0F4FB05468021C7
:10077000384600F0EFFBA2780146954202D1E078BE
:1007800081422BD0E07840EA420010F0FF0241EABB
:100790004500C0B215D0012A24D0022A27D0032A4E
:1007A0001AD129E00328D0D00028D1D0D3E70028DF
:1007B000CBD00328CCD0CEE70228C6D00128C7D0A2
:1007C000C9E7012802D0022803D005E0E088401CD8
:1007D00001E0E088401EE080A570E170802030607C
:1007E000BDE8F0810328F1D00028F2D0F4E700281A
:1007F000ECD00328EDD0EFE70228E7D00128E8D0BD
:10080000EAE70000140401400008014060010020F4
:1008100070B5FFF787FE0546FFF7E4FD044615B106
:100820002846FFF747FE14B12046FFF70BFEBDE850
:100830007040052000F080BA72B6FEE708B50020CF
:100840000A210090A2234FF49B72084602F061F93E
:1008500008BD00002DE9F05F90F821100024022966
:1008600003D004218163012485E001680A6822F035
:100870000E020A6001680A6822F001020A603F4E17
:100880003E4FB215DFF8F4C0DFF8F090DFF8ECA0CF
:10089000DFF8E8B0DFF8E4E00168783F1301150203
:1008A000ACF1640CA9F15009AAF13C0AABF1280B98
:1008B000AEF1140E4FF48018B14227D9B9420ED0D0
:1008C000614512D049451DD0514518D0594518D021
:1008D000714501D1424615E0294EB14201D10122B4
:1008E00010E0274E1436B14201D110220AE0244E06
:1008F0002836B14206D0224A3C32914201D11A46F2
:1009000000E02A461E49091F0A602BE0B94213D0B5
:10091000614517D0494522D051451DD059451DD0BC
:10092000714501D142461AE0B14202D14FF08072C6
:1009300015E0134EB14201D1012210E0104E1436E1
:10094000B14201D110220AE00D4E2836B14206D044
:100950000B4A3C32914201D11A4600E02A4607492F
:1009600080394A60012180F82110002180F8201090
:10097000416B01B188472046BDE8F09F80000240EE
:100980000804024010B5D0B101680A6822F00102E3
:100990000A6002680021116002685160026891607B
:1009A0000268D160144C02681423A24209D2134C8D
:1009B0002244B2FBF3F292000264114A0AE00120E1
:1009C00010BD0D4C64422244B2FBF3F2920002646B
:1009D000094A083AC26390F8403001229A40C36B3A
:1009E0005A608162C16201634163816380F82110B2
:1009F00080F82010002010BD08040240F8FFFDBF61
:100A0000000002402DE9F05FC16B0A6801680B68C5
:100A1000046C4FF0040808FA04F8844D844E854FA6
:100A2000DFF814C2DFF81492DFF814A2DFF814B272
:100A3000DFF814E218EA020F65D05FEA437862D566
:100A40000A68920603D40A6822F004020A60DFF8FA
:100A5000F0814FF48062016808F114081301140258
:100A6000414524D9A9420DD0B1420FD0B9421AD084
:100A7000614515D0494515D0514501D1120312E009
:100A8000594501D104220EE0714501D140220AE00E
:100A90006D4D1435A94206D06B4A2832914201D1DE
:100AA0001A4600E022466749091F0A6029E0A94268
:100AB00013D0B14215D0B94220D061451BD0494571
:100AC0001BD0514502D14FF4800217E0414502D1BD
:100AD0004FF0806212E0594501D104220EE07145C9
:100AE00001D140220AE0584D1435A94206D0564A99
:100AF0002832914201D11A4600E022464B4908397A
:100B00004A60C16A71E04FF0020808FA04F818EA76
:100B1000020F70D05FEA83786DD50A68920606D41A
:100B20000A6822F00A020A60012180F82110DFF829
:100B300010814FF40072016808F1140813011402C7
:100B4000414524D9A9420DD0B1420FD0B9421AD0A3
:100B5000614515D0494515D0514501D1120312E028
:100B6000594501D102220EE0714501D120220AE04F
:100B7000354D1435A94206D0334A2832914201D16D
:100B80001A4600E022462F49091F0A6029E0A942BF
:100B900013D0B14215D0B94220D061451BD0494590
:100BA0001BD0514502D14FF4001217E0414502D14C
:100BB0004FF0007212E0594501D102220EE071455A
:100BC00001D120220AE0204D1435A94206D01E4A48
:100BD0002832914201D11A4600E0224613490839D1
:100BE0004A60002180F82010816A00291CD0BDE8ED
:100BF000F05F0847FFE70825A540154214D01A0703
:100C000012D50A6822F00E020A6090F84020C36BE9
:100C1000012101FA02F25A60816380F8211000215B
:100C200080F82010016BE0E7BDE8F09F080002406B
:100C30001C000240300002404400024058000240C4
:100C40006C000240080402401C04024030B560B150
:100C50001A4B026814219A4209D2194B1344B3FB70
:100C6000F1F18900016417490AE0012030BD134BFE
:100C70005B421344B3FBF1F1890001640F49083969
:100C8000C163022180F82110136843F6F0718B4391
:100C9000F0E901142143D0E902452C4321430469C2
:100CA0002143446921438469214319431160002190
:100CB0004163012242770177084630BD08040240B3
:100CC000F8FFFDBF0000024070B5044690F8200018
:100CD000002501280CD0012084F8200094F8216020
:100CE0000020012E06D084F820000225284670BD81
:100CF000022070BD022684F82160A0632068066887
:100D000026F0010606602046FFF756FBE06A002841
:100D10002068016802D041F00E0106E021F00401D4
:100D200001602068016841F00A01016020680168E3
:100D300041F001010160D9E770B5044600F014F9F3
:100D40000546601C02D004480078044400F00CF909
:100D5000401BA042FAD370BD500000202DE9F84F8F
:100D6000DFF8C8910024A9F1040B23460F2709F1ED
:100D7000040AABF1040ED1E00125A54006EA050204
:100D8000AA4276D1DFF8A8C14E68A6EB0C086645EA
:100D90002BD00DDC032E34D005DC36B3012E19D058
:100DA000022E2FD11BE0112E16D0122E2AD119E0BF
:100DB000B8F5881F19D006DCB8F5803F15D0B8F516
:100DC000801F1FD111E0B8F5001F0ED0B8F5041F29
:100DD00018D10AE0CB6815E0CB681B1D12E0CB6888
:100DE00008330FE0CB680C330CE08B682BB1012B80
:100DF0004FF0080303D0456104E0042302E00561DD
:100E000000E00023FF2A01D8064601E000F10406B5
:100E10004FEA840501D9A5F12005D6F8008007FA2C
:100E200005FC28EA0C0803FA05F548EA0508C6F8A7
:100E300000804D68ED0070D53E4DAE6946F001066C
:100E4000AE61AD6924F0030605F0010500953A4D49
:100E500006EB050CDCF80850A607360F07FA06F873
:100E600025EA0805DFF8D480404503D14FF000089B
:100E700025E052E0DFF8C880404502D14FF001087C
:100E80001DE0DFF8C080404502D14FF0020816E0B7
:100E9000DFF8B480404502D14FF003080FE0DFF8DF
:100EA000AC80404502D14FF0040808E0DFF8A08094
:100EB000404502D14FF0050801E04FF0060808FA5E
:100EC00006F848EA0508CCF808804D68D9F80060B3
:100ED000ED024D4601D5164300E096432E604D6865
:100EE000DAF80060AD02554601D5164300E096439E
:100EF0002E604D68DBF80060AD035D4601D51643FA
:100F000000E096432E604D68DEF80060ED03754604
:100F100001D5164300E096432E60641C0A6816460D
:100F2000E2407FF429AFBDE8F88F000008040140DB
:100F300000001110001002400000014000080140B4
:100F4000000C014000100140001401400018014055
:100F5000001C01408068084000D0012070470AB1A1
:100F6000016170470904FBE7014880687047000091
:100F70005000002002488168027811448160704767
:100F800050000020074810B5016841F010010160D1
:100F9000032000F075F80F2000F006F800F024F8A8
:100FA000002010BD0020024070B50D4D04464FF4E6
:100FB0007A712878B1FBF0F00A490968B1FBF0F0CA
:100FC00000F0CEFF48B9102C07D200222146501E57
:100FD00000F036F800206C6070BD012070BD00008C
:100FE000500000205C0000200C4808B5816941F0E9
:100FF00001018161816901F001010091C16941F044
:101000008051C161C06900F080500090044841687F
:1010100021F0E06141F00071416008BD0010024024
:1010200000000140002809DB00F01F02012191406F
:101030004009800000F1E020C0F800117047000076
:10104000F0B40E4B1B680C46C3F30223C3F1070533
:10105000042D00D90425191D072901D2002300E021
:10106000DB1E012606FA05F1491E214099409E40EB
:10107000761E16403143F0BC04F07CBF0CED00E05E
:10108000064900F0070208684FF6FF03184040EADF
:101090000220034A10430860704700000CED00E096
:1010A0000000FA0510B50C0607D501F0070101EBA9
:1010B000810100EBC100103005E001EB810100EB84
:1010C000C10000F5A87099B232B10122027301810A
:1010D000190C4181002010BD00220273C180F9E784
:1010E000704701EB810200EBC202D0F8D402526AD1
:1010F00003F02BBE01EB810200EBC202D0F8D40258
:10110000D2F8642103F084BE70B504460B0601F0EA
:10111000070000EB800104EBC1014FF001024FF02A
:10112000000502D54A74103103E081F8515101F5F0
:10113000A871087094F89002012808D084F89022D1
:10114000206804F04FFB84F89052002070BD02200C
:1011500070BD70B5044601F00F002279904201D9AC
:10116000012070BD0B0601F0070000EB800104EBCD
:10117000C1014FF001024FF0000502D54A74103151
:1011800003E081F8515101F5A8718D70087094F851
:101190009002012808D084F89022206804F0BFFB58
:1011A00084F89052002070BD022070BD2DE9F05FE0
:1011B00004685FEA424C0B788D69B4F850C04FF078
:1011C00000064BF68F7948F2800A48F68F7B48F28A
:1011D000C00E4FF480672AD54FF0020808EBC30811
:1011E000C44407EB4C07E45BC4F30904A54203D3F2
:1011F0002D1B8D6101D00BE08E61066836F82350FF
:1012000005EA090585F4005545EA0A0526F8235044
:10121000520609D50D78036833F8252002EA0B023F
:1012200042EA0E0223F8252084B30A8929E04FF010
:10123000060808EBC308C44407EB4C07E45BC4F39F
:101240000904A54203D32D1B8D6101D00BE08E61F3
:10125000066836F8235005EA090585F4005545EA85
:101260000A0526F82350520609D40B78056835F88C
:10127000232002EA0B0242EA0E0225F823202CB1B9
:101280004A8949690068234604F02EFE2046BDE8DD
:10129000F09F2DE9F05F054600680C465FEA426C5E
:1012A00016468B692278B0F850C048F68F774CF21A
:1012B00080094FF4004B4FF6FF7E4FF4806A4FF0E9
:1012C000000172D54FF0020808EBC208E0440AEBB7
:1012D000480C30F80C00C0F30900834211D91B1AE6
:1012E000A3610FD0730407D52E6836F822303B4037
:1012F00043EA090326F8223094F82420012A47D033
:1013000052E1A161607810B1012813D01AE0286879
:10131000B0F85030184400EB0210B0F80424C2F3C7
:101320000902A0F80424B0F8042442F40042A0F812
:10133000042407E02868B0F85030184400EB02108D
:10134000A0F804146278286812B1012A11D018E0BC
:10135000B0F850100844217800EB0110B0F80C14DC
:10136000C1F30901A0F80C14B0F80C1441F40041C9
:1013700005E0B0F850201044227800EB0210A0F8ED
:101380000C1421782846FFF7ACFE700472D40BE1F0
:10139000626902446261E2690244E2612369226A8D
:1013A0009A4203D31846111A04E03EE084F8241050
:1013B0000AB110462162617811B1012929D031E0CA
:1013C0002968B1F850201144227801EB0211B1F8DC
:1013D0000424C2F30902A1F8042401F204413E28C6
:1013E00007D94209C30600D1521E0B884BEA82225C
:1013F00007E048B14208C30700D0521C0B880EEA30
:10140000822213430B800DE00A8842F400420A80D6
:1014100008E02968B1F850201144227801EB02114C
:10142000A1F8040483B22289BAE04FF0060808EB61
:10143000C208E0440AEB480C30F80C00C0F3090085
:10144000834211D31B1AA3610FD0730407D42E68F3
:1014500036F822303B4043EA090326F8223094F85C
:101460002420012A51D09FE0A161607818B10128A1
:1014700014D01BE03FE02868B0F85030184400EB6F
:101480000210B0F80424C2F30902A0F80424B0F852
:10149000042442F40042A0F8042407E02868B0F8CD
:1014A0005030184400EB0210A0F804146278286849
:1014B00012B1012A11D018E0B0F850100844217878
:1014C00000EB0110B0F80C14C1F30901A0F80C14E2
:1014D000B0F80C1441F4004105E0B0F8502010447D
:1014E000227800EB0210A0F80C1421782846FFF7B0
:1014F000F8FD700458D42278296831F82200384069
:1015000040EA090021F822004EE06269024462616B
:10151000E2690244E2612369226A9A4203D31846CF
:10152000111A216204E00AB11046216284F82410E5
:101530006278296812B1012A28D02FE0B1F8502032
:101540001144227801EB0211B1F80C24C2F3090214
:10155000A1F80C2401F20C413E2807D94209C30628
:1015600000D1521E0B884BEA822207E048B14208A4
:10157000C30700D0521C0B880EEA822213430B8053
:101580000CE00A8842F400420A8007E0B1F85020DB
:101590001144227801EB0211A1F80C04628983B294
:1015A0006169286804F0BEFC2278296831F82200BD
:1015B00048F6BF73184080F0300048F280031843AB
:1015C00021F822000020BDE8F09F2DE9F0410446FB
:1015D0000F0601F0070000EB800104EBC1014FF0A2
:1015E00001064FF0000502D54E74103103E081F87A
:1015F000515101F5A871022B08700A61CB7000D11E
:101600000D7194F89002012809D084F89062206846
:1016100003F0FEFE284684F89052BDE8F0810220D7
:10162000FBE710B501F0070404EB840100EBC101F6
:10163000C1E959230022C1F86C2181F8512181F8B8
:101640005041006801F5A87104F0BEF9002010BDFA
:1016500070B504460D4601F007002179884201D992
:10166000012070BD29064FF000064FF0010206D59B
:1016700000EB800104EBC1014A74103107E005EB77
:10168000850104EBC10181F8516101F5A8718A70EF
:10169000087094F89002012807D084F890222068FE
:1016A00004F079F9680702D006E0022070BD04F565
:1016B0002671206804F031F984F89062002070BD32
:1016C00010B501F0070404EB840100EBC101C1E98E
:1016D0000923012281F834200B630023CB624A7472
:1016E00001F8104F006804F06FF9002010BD0000F1
:1016F0001FB50446006804F0F3FB010403D520463F
:1017000002F096FA1FBD41050DD5206830F8441F40
:1017100021F480610180204600F000F9002120467C
:1017200000F017F91FBD410405D5206830F8441FAB
:1017300021F4804174E0810405D5206830F8441F0D
:1017400021F400516CE0C10414D5206830F8401F2A
:1017500021F004010180206830F8401F21F00801C9
:101760000180204600F0EDF8206830F8441F21F495
:10177000805155E0010540D5D4F80020002069468D
:1017800032F8203021F81030401CC0B20828F7D3BE
:1017900032F8400F40F001001080206830F8402FF0
:1017A00022F0010202802068B0F844205205FBD5E7
:1017B00030F8442F22F4806202800020236831F840
:1017C000102023F82020401CC0B20828F6D320683F
:1017D00030F8401F41F008010180206830F8441FB4
:1017E00021F400610180206830F8401F41F00401BD
:1017F0000180204600F0E0F81FBD810509D5206872
:1018000030F8441F21F400710180204600F09DF85B
:101810001FBDC005FCD5206830F8441F21F480713D
:1018200001801FBD2DE9F041040004D094F891021D
:10183000002518B107E00120BDE8F08184F890523E
:10184000204600F04DF8032084F89102657120686D
:1018500004F05CF894E80F0003F0C2FF022698BB86
:101860000021206804F056FB70BB002001270BE02C
:1018700000EB800104EBC1014F740874CD740D625C
:101880004D62401CC0B28D6221798142F0D80020A7
:1018900012E000BF00EB800104EBC10181F851515F
:1018A00081F8500181F85351C1F86051C1F8645179
:1018B000401CC0B2C1F8685121798142EAD894E84D
:1018C0000F0004F01AF810B184F89162B3E7657361
:1018D00084F89172206804F00EF80020ACE7000054
:1018E00008B500680B49884212D10B48C16941F420
:1018F0000001C161C069002200F40000009011469F
:101900001420FFF79DFBBDE808401420FFF78ABBB9
:1019100008BD0000005C00400010024070B50446A5
:1019200080790125022801D0FEF786FF2946D4F8E8
:10193000D40203F045FBD4F8D402BDE8704003F0B4
:1019400001BBD0F8D40203F025BBD0F8D40203F0D9
:101950002BBB10B5044690F8900201280AD0012054
:1019600084F890026173206804F0D6FA002084F8AD
:10197000900210BD022010BDD0F8D42200F52671CF
:10198000104603F029BB10B5044690F890020128D8
:1019900010D0012084F89002206804F086FA01211A
:1019A0002046FFF79DFB206803F0A3FF002084F88A
:1019B000900210BD022010BD10B50446D0F8D4022C
:1019C00003F049FBA07A002804D00348016841F0E5
:1019D0000601016010BD000010ED00E02DE9F843A4
:1019E00005460078354CC00754D0E0690026C00099
:1019F00008D4E06940F08050E061E069012600F021
:101A0000805000902E480168C90512D401688046B4
:101A100041F480710160FFF7A7FA074605E000BFB7
:101A2000FFF7A2FAC01B642823D8D8F80000C0052D
:101A3000F6D5206A10F4407021D0A98801F44071D5
:101A400081421CD0206A1F49012220F440700A60A4
:101A500000220A602062C00711D0FFF785FA07460E
:101A600041F2883808E000BFFFF77EFAC11B41450C
:101A700002D90320BDE8F883206A8007F4D5206AE4
:101A8000696820F44070084320621EB1E06920F0CC
:101A90008050E0612878800705D56068A96820F447
:101AA0004040084360602878C00605D560686969D1
:101AB00020F48000084360600020DBE70010024053
:101AC00000700040400442422DE9F0470F460500F7
:101AD00061D0434E306800F00700B84209D2306848
:101AE00020F0070038433060306800F00700B8424B
:101AF00051D128683B4C810712D5400703D5606857
:101B000040F4E06060602878000703D5606840F426
:101B1000605060606068A96820F0F0000843606071
:101B20002878C00728D06868012810D021680228CA
:101B300010D0890700292EDA616821F003010143E2
:101B40006160FFF711FA804641F288390DE02168A3
:101B50008903EFE78901EDE7FFF706FAA0EB08013B
:101B6000494502D90320BDE8F0876068696800F044
:101B70000C00B0EB810FEFD1306800F00700B842E5
:101B80000BD9306820F0070038433060306800F02F
:101B90000700B84201D00120E5E72878400705D5C5
:101BA0006068E96820F4E060084360602878000716
:101BB00006D56068296920F4605040EAC100606081
:101BC00000F018F86168084AC1F30311515CC8407D
:101BD0000649086006480068FFF7E6F90020C2E7FA
:101BE00000200240001002409C7600085C000020AB
:101BF000540000200E4A51680E4801F00C03042BDB
:101C000011D0082B0FD10C48C1F38343C903C05C2A
:101C10000AD55168084AC1F34041921E515C054AF9
:101C20005043B0FBF1F0704704494843704700004F
:101C30000010024000127A008C76000800093D0076
:101C40002DE9F84F040070D02078C04DC00749D06E
:101C50006868C0F38100012807D06868C0F381007C
:101C6000022809D16868C00306D52868800339D5E1
:101C700060680028E7D035E06068B0F5803F0BD0A1
:101C800010B1B0F5A02F11D0286820F48030286062
:101C9000286820F4802002E0286840F48030286022
:101CA000606890B1FFF760F906460AE0286840F4E2
:101CB00080202860F0E700BFFFF756F9801B6428FA
:101CC00073D828688003F7D50CE0FFF74DF9064676
:101CD00005E000BFFFF748F9801B6428F0D82868AA
:101CE0008003F7D420789A4E80074FF001094FF017
:101CF000000839D5686810F00C0F07D06868C0F389
:101D00008100022809D16868C00306D428688007CA
:101D100014D52069012808D110E02069B0B1C6F8B7
:101D20000090FFF721F9074605E00AE1FFF71CF9EB
:101D3000C01B0228C4D828688007F7D528686169C5
:101D400020F0F80040EAC10028600DE0C6F80080ED
:101D5000FFF70AF9074604E0FFF706F9C01B02285F
:101D600023D828688007F7D4207800072CD5794835
:101D7000A169D9B1C0F80090FFF7F6F8074604E072
:101D8000FFF7F2F8C01B02280FD8686A8007F7D562
:101D900071484FF4FA510068B0FBF1F0009000BFB9
:101DA0000098411E0091FAD20EE080E0C0F8008059
:101DB000FFF7DAF8074604E0FFF7D6F8C01B022861
:101DC00075D8686A8007F7D42078400760D5E8693D
:101DD0000027C00008D4E86940F08050E861E86955
:101DE000012700F0805000905C480168C90513D4B9
:101DF0000168834641F480710160FFF7B5F88246BF
:101E000006E000BFFFF7B0F8A0EB0A0064284ED848
:101E1000DBF80000C005F5D5E06801280AD008B15C
:101E2000052813D0286A20F001002862286A20F0D3
:101E3000040002E0286A40F001002862E06841F2F4
:101E4000883B98B1FFF790F882460BE0286A40F093
:101E500004002862EEE700BFFFF786F8A0EB0A0156
:101E600059455AD8286A8007F6D50CE0FFF77CF868
:101E7000824605E0FFF778F8A0EB0A0159454CD8F7
:101E8000286A8007F6D41FB1E86920F08050E86125
:101E9000E06988B36968C1F38101022944D002284E
:101EA000C6F8608004D0FFF75FF8044638E034E0FD
:101EB000FFF75AF8074604E0FFF756F8C01B022860
:101EC0002BD828688001F7D4206AB0F5803F05D16F
:101ED0006868A16820F4003008436860D4E908010C
:101EE0000843696821F4741108436860C6F860907B
:101EF000FFF73AF8044606E025E000BFFFF734F8A4
:101F0000001B022809D828688001F7D51BE000BF14
:101F1000FFF72AF8001B022802D90320BDE8F88F3A
:101F200028688001F4D40EE00128F7D06868226A9E
:101F300000F48031914204D1616A00F4701088424B
:101F400001D00120EAE70020E8E70000001002408D
:101F500000004242800442425C00002000700040C9
:101F600010B5401EB0F1807F01D3012010BD4FF0AD
:101F7000E02460610F21601703F0FCFF0020A061E6
:101F800007202061002010BD10B590F83C20012AE8
:101F900022D0012280F83C20CA688C6822F440726A
:101FA00022434C6822F4806222430C6822F40062CF
:101FB00022430C6922F4805222434C6922F40052DD
:101FC0002243C969002322F480420A4301684A641B
:101FD00080F83C30002010BD022010BD70B590F894
:101FE0003C20012A2CD0012480F83C40022280F8B9
:101FF0003D2003685A689D6822F070060A683243E3
:102000005A60104B02689A420ED00F4B9A420BD086
:10201000B2F1804F08D00D4B9A4205D00C4B9A423A
:1020200002D00C4B9A4204D1496825F08003194331
:10203000916080F83D40002180F83C10084670BD5A
:10204000022070BD002C014000340140000400401B
:1020500000080040000C00402DE9F04117460D003B
:1020600004464FF000060CD0042D11D0082D16D0D8
:1020700094F84500022819D094F84500012818D09A
:102080005AE094F84200022810D094F84200F5E794
:1020900094F84300022809D094F84300EEE794F83E
:1020A0004400022802D094F84400E7E70220BDE88B
:1020B000F08187B37BB33D493D4ADFF8F8C0022089
:1020C0003DB1042D16D0082D26D084F845000126F8
:1020D00069E084F84200606A8162606A3946C262DF
:1020E000606AC0F830C02268606A3432FEF7ECFDE6
:1020F00088B923E084F84300A06A8162A06A394667
:10210000C262A06AC0F830C02268A06A3832FEF706
:10211000DBFD00B917E00FE084F84400E06A81625B
:10212000E06A3946C262E06AC0F830C02268E06AFC
:102130003C32FEF7C9FD58B10120B8E72068C168FC
:1021400041F4007108E02068C16841F4806103E057
:102150002068C16841F40061C160042229462068FA
:1021600002F031FA2068416C41F4004141641249A7
:10217000206888420ED0114988420BD0B0F1804FC0
:1021800008D00F49884205D00E49884202D00E4936
:10219000884204D1816801F00701062903D0016853
:1021A00041F001010160304681E700001946000856
:1021B000E145000863460008002C0140003401405E
:1021C0000004004000080040000C004070B50D0005
:1021D00004464FF0000605D0042D0AD0082D0FD07C
:1021E00001263CE02068C16821F40071C160606A8A
:1021F0000CE02068C16821F48061C160A06A05E03C
:102200002068C16821F40061C160E06AFEF722FB2A
:1022100000222946206802F0D6F92068036A41F2BC
:1022200011110B4240F2444206D1036A134203D11A
:10223000436C23F4004343642068036A0B4206D1D5
:10224000016A114203D1016821F0010101600120FE
:102250003DB1042D08D0082D09D084F84500304642
:1022600070BD84F84200FAE784F84300F7E784F889
:102270004400F4E72DE9F0410D46040003D094F842
:102280003D0018B108E00120BDE8F081002084F88D
:102290003C00204600F040F8022084F83D00206811
:1022A000816844F2070291438160211D206802F099
:1022B0002FF9226890689169166A2B68AF69034309
:1022C00040F20330814341EA0721A868EF690843DF
:1022D0004FF6FC418843E96840EA0720014328693A
:1022E0002F6A000140EA0730084369686D6926F0EB
:1022F000220646EA0515294393602268906154F846
:10230000460B0162012004F81F09E0752076E07693
:102310002077A0750020B7E710B586B000210091A6
:102320000191029103910368194901221948B3F1FF
:10233000804F1AD0184CA34215D1CB6943F0020349
:10234000CB61CB6903F0020304938B6943F0040370
:102350008B61896901F004010491C021009102920E
:102360006946FEF7FBFC06B010BDCB6943F00103E4
:10237000CB61CB6903F0010304938B6943F0040341
:102380008B61896901F0040104910321E6E70000F3
:1023900000100240000801400004004070B590F8B1
:1023A0003E60044690F83F5090F8423090F8432049
:1023B000022021B104290ED0012E1BD114E0012EE0
:1023C00018D1012B16D184F83E0084F84200012276
:1023D0000021206820E0012D0CD1012A0AD184F8C7
:1023E0003F0084F8430014E0012D03D1012B01D1FB
:1023F000012A01D0012070BD84F83E0084F83F001E
:1024000084F8420084F8430001220021206802F091
:10241000CDF801220421206802F0C8F82068016884
:1024200041F001010160002070BD704770B50446A5
:1024300090F83C0000260D4601280FD0012084F8BA
:102440003C006AB1042A1DD0082A2FD00C2A3FD0A4
:102450000126002084F83C00304670BD022070BD8B
:10246000206802F01DF92068816941F0080181614E
:102470002068816921F004018161206881692A69ED
:10248000114311E0206802F03BF92068816941F4B2
:10249000006181612068816921F480618161206827
:1024A00081692A6941EA02218161D2E7206802F04C
:1024B0005DF92068C16941F00801C1612068C16906
:1024C00021F00401C1612068C1692A69114311E04A
:1024D000206802F07FF92068C16941F40061C161A0
:1024E0002068C16921F48061C1612068C1692A69DD
:1024F00041EA0221C161ACE710B5040003D094F8B1
:102500003D0010B107E0012010BD002084F83C0020
:10251000204600F01EF8022084F83D00211D2068AE
:1025200001F0F6FF012084F8460084F83E0084F8AC
:102530003F0084F8400084F8410084F8420084F8A9
:10254000430084F8440084F8450084F83D000020EE
:1025500010BD704710B5094A016891420CD1007F47
:10256000022809D104210648FFF730FE0449002063
:10257000096888630349087010BD0000002C014001
:10258000F809002069010020704700002DE9F84F8C
:1025900014460D4604F0A2FE424904F089FD0646A9
:1025A00004F048FE814604F081FE314604F076FFD7
:1025B0000646284604F092FE3B4904F079FD804629
:1025C0004FF07E57204604F089FE054640463146CE
:1025D00004F098FE394604F061FF0146284604F0F5
:1025E00091FE82463146384604F062FF014640467D
:1025F00004F088FE394604F051FF0146284604F0F5
:1026000081FE07464E4640464FF07E5104F046FF9D
:102610000146284604F076FE04F028FEC5B2052ED9
:102620003AD2DFE806F0030B152028008DF80140B0
:10263000384604F01BFE8DF8000006E0504604F01A
:1026400015FE8DF801008DF800408DF802501BE05A
:102650008DF801508DF800404FEA070004F006FEA7
:102660008DF8020010E08DF80150504604F0FEFD98
:102670008DF8000006E0384604F0F8FD8DF8010002
:102680008DF800508DF80240BDF800009DF8021052
:1026900040EA0140BDE8F88F8DF801408DF8005008
:1026A0005046DBE70000704200007F43FEE710B5B4
:1026B000801A00B2C91A09B24043029C01FB010012
:1026C0006443A04201DC012010BD002010BD0000C9
:1026D000F0B500230A24302537261F4611E000BF3D
:1026E000B4EB107F02D905EB107C01E006EB107C07
:1026F00001F813C001EB430C00015B1C8CF8017066
:10270000DBB29342ECD3F0BD10B500F039F80649C6
:10271000FF2806D00A78904201D0087010BDFF2033
:1027200010BDFF200870FAE76801002070B5104D59
:10273000104E0024012235F814103046FEF70FFC2D
:10274000641CE4B2042CF5D300210B4C012201EBF4
:102750004103002023441A54401CC0B20328FAD37A
:10276000491CC9B20429F2D30449FF20087070BD86
:10277000249F0008000C0140EC09002068010020A3
:102780002DE9F84FFF20DFF88080DFF880B0DFF818
:102790008090002508F10607CDF8000037F81510E5
:1027A00000224846FEF7DBFB0220FEF7C5FA05EBE8
:1027B000450A00240AEB0B0638F814104846FEF7C9
:1027C000C9FBA8B101203055641CE4B2032CF3D33B
:1027D00037F8151001224846FEF7C1FB0120FEF72D
:1027E000ABFA6D1CEDB2042DD8D30098BDE8F88F7C
:1027F000305D0128E8D10020034930550E310AEB45
:102800000100005D0090DFE71E9F0008EC0900203A
:10281000000C014070B5214E04213046FEF79AFBB2
:102820001F4C0546E07C012835D1A5BB3220FEF7C0
:1028300083FA20780721401CB0FBF1F201FB120063
:102840002070082821D2DFE800F004090B0D0F11D9
:10285000131701F0C1FB01F0C5FD16E0012008E0EF
:10286000022006E0032004E0042002E0052000E04E
:10287000062001F05DFD08E00A481421006D01F01A
:102880006FFD02E00A20FEF757FA20213046FEF7DE
:1028900061FB0028F6D0E57470BD0000000801401F
:1028A0008C010020389F000870B5244D2021284657
:1028B000FEF750FB224C0126A8B91420FEF73CFA83
:1028C00060780321401CB0FBF1F201FB1200607044
:1028D000267002E00A20FEF72FFA20212846FEF794
:1028E00039FB0028F6D06078002530B101280FD0E0
:1028F000022818D06570267006E0207820B1FDF718
:102900009DFF00F059FF2570BDE8704001F00EB941
:10291000207820B1FDF792FF00F040FE2570BDE861
:10292000704001F042B9207820B1FDF787FF00F038
:1029300029F82570BDE8704001F0BCB800080140DE
:10294000720100202DE9F04106461C4617460D464F
:102950002A2000F0EFFE304600F0E2FE384600F09C
:10296000DFFE2B2000F0E6FE2235A8B200F0D8FEF4
:102970002234A0B200F0D4FEBDE8F0412C2000F0DB
:10298000D9BE0000FEB500241025CDE900454FF466
:10299000FC633DA20A213C20029400F06BFB032261
:1029A0003221C82000F0DAFC4FF6FF76CDE9004571
:1029B000334638A232211420029400F05BFBCDE9AB
:1029C0000045334635A232215020029400F052FBDC
:1029D000CDE90045334633A232218C20029400F029
:1029E00049FBCDE90045334630A250211420029422
:1029F00000F040FBCDE9004533462EA250213C209B
:102A0000029400F037FBCDE9004533462CA250215B
:102A10008C20029400F02EFBCDE9004533462AA21B
:102A20006E211420029400F025FBCDE900453346C9
:102A300027A26E215020029400F01CFBCDE9004536
:102A4000334625A26E218C20029400F013FBCDE9C1
:102A50000045334622A28C211420029400F00AFB88
:102A6000CDE90045334620A28C215020029400F08D
:102A700001FB8C21CDE9004533461DA20846029496
:102A800000F0F8FAFEBD0000B6B6D2F4BFECBDDD32
:102A9000D2B30000B9D8D7A200000000CBD1CBF749
:102AA00000000000B9D8D2B300000000C1ACB2A54C
:102AB00000000000B2BBB8D0D0CBC8A4000000001A
:102AC000D7F7D5DFD2B30000CAD5B2D800000000D6
:102AD000B8B4D6C600000000C7E5C6C100000000BB
:102AE000C6C0C2DB00000000B5E3D4DE0000000079
:102AF000B2A5B7C520D4DDCDA300000010B51446A3
:102B00000B460246FFF71EFF2046BDE8104000F0CE
:102B100007BE2DE9F04780461F46581E83B2164671
:102B2000501E82B20C464046DDF82090FFF70AFFA7
:102B30000AE0454604E0484600F0F2FD6D1CADB2E7
:102B4000B542F8D3641CA4B2BC42F2D3BDE8F0870E
:102B500030B585B0002002900D48816941F0080130
:102B6000816180694FF47C7400F0080004900120BA
:102B7000CDE900400320074D039069462846FEF743
:102B8000EDF8012221462846FEF7E9F905B030BDEF
:102B900000100240000C01402DE9FE430024AC234C
:102BA0004FF4A072214620460094FFF7B2FF102593
:102BB0004FF6FF77CDE900453B4674A214211E2055
:102BC000029400F0CEFCCDE900453B4672A23221D2
:102BD0000A20029400F088FACDE900453B466FA236
:102BE00032211E20029400F07FFA3221CDE9004507
:102BF0003B466BA20846029400F076FACDE9004508
:102C00003B4668A250214620029400F0AAFCCDE980
:102C100000453B4664A232215A20029400F064FA37
:102C2000CDE900453B4661A232216E20029400F0BE
:102C30005BFACDE900453B465DA232218220029439
:102C400000F052FACDE900453B465AA232219620C7
:102C5000029400F049FACDE900453B4656A25021C6
:102C60000A20029400F040FACDE900453B4653A209
:102C700050211E20029400F037FACDE900453B4672
:102C80004FA250213220029400F02EFACDE90045E7
:102C90003B464CA250214620029400F025FACDE993
:102CA00000453B463FA250215A20029400F059FCB7
:102CB000CDE900453B4644A250216E20029400F02D
:102CC00050FCCDE900453B4633A26E210A20029418
:102CD00000F00AFACDE900453B4630A26E211E20E5
:102CE000029400F001FACDE900453B4638A26E217E
:102CF0003220029400F0F8F9CDE900453B4635A2B8
:102D00006E214620029400F0EFF9CDE900453B46E4
:102D100024A26E215A20029400F023FC6E21CDE9FA
:102D200000453B462CA20846029400F01AFCB84627
:102D300000264FF478494FF4FA7700BFCDE90045FB
:102D40004B4628A28C213220029400F00AFC38461F
:102D5000FDF7F2FFCDE90045434622A28C21322047
:102D6000029400F0FEFB3846FDF7E6FF761C032ECA
:102D7000E4DB8C21CDE900454FF4FC631CA208463E
:102D8000029400F0EEFBBDE8FE830000446576652A
:102D90006C6F706572000000BFAA0000B7A200004F
:102DA000D5DF00003A000000D0A10000B6C5000049
:102DB000CDAC0000D1A70000B9CC0000BCFE0000E3
:102DC000B0E60000B1BE0000302E312E3100000010
:102DD000CAB10000BCE40000323032352E30382E4B
:102DE000323100004C6F6164696E672E2E2E000038
:102DF000526561647921000010B5FFF7A9FE6C4CA3
:102E0000002240212046FEF7AAF86420FDF794FF37
:102E1000012240212046FEF7A2F86420FDF78CFF36
:102E2000002261152046FEF79AF86420FDF784FF22
:102E3000112000F07FFC7820FDF77EFF362000F0A7
:102E400079FC702000F08AFC3A2000F073FC052029
:102E500000F084FCB22000F06DFC0C2000F07EFC41
:102E60000C2000F07BFC002000F078FC332000F008
:102E700075FC332000F072FCB72000F05BFC3520BD
:102E800000F06CFCBB2000F055FC192000F066FC43
:102E9000C02000F04FFC2C2000F060FCC22000F0AD
:102EA00049FC012000F05AFCC32000F043FC122032
:102EB00000F054FCC42000F03DFC202000F04EFC4B
:102EC000C62000F037FC0F2000F048FCD02000F0B6
:102ED00031FCA42000F042FCA12000F03FFCE020E7
:102EE00000F028FCD02000F039FC042000F036FC73
:102EF0000D2000F033FC112000F030FC132000F016
:102F00002DFC2B2000F02AFC3F2000F027FC542051
:102F100000F024FC4C2000F021FC182000F01EFCE6
:102F20000D2000F01BFC0B2000F018FC1F2000F00F
:102F300015FC232000F012FCE12000F0FBFBD02068
:102F400000F00CFC042000F009FC0C2000F006FC52
:102F5000112000F003FC132000F000FC2C2000F0F6
:102F6000FDFB3F2000F0FAFB442000F0F7FB51206E
:102F700000F0F4FB2F2000F0F1FB1F2000F0EEFB2F
:102F80001F2000F0EBFB202000F0E8FB232000F0E6
:102F9000E5FB212000F0CEFB112000F0CBFB7820D8
:102FA000FDF7CAFEBDE81040292000F0C3BB0000B9
:102FB000000C01402DE9FF4F81B00446DDE90F7B95
:102FC0004FEA570800904FEAD80000FB07FA203A72
:102FD000D0B20390029802993844401E83B204EBA9
:102FE0000800401E82B22046FFF7ACFC002637E006
:102FF000102F24D0202F35D11C49039801EB8010CD
:103000005FF0000510F80690BBF1000F4FF00100D3
:1030100000FA05F000EA090016D020B12046049A13
:103020000299FFF76BFD641C0098A4B2211A414578
:1030300010D10298009C401C80B202900EE00C4916
:10304000039801EB0010DBE708B1049800E00E984C
:1030500000F066FB6D1CEDB2082DD5D3761CB6B220
:103060005645C5D305B0BDE8F08F00009C7C000834
:10307000AC7600082DE9FE4F9946DDE90D4715466F
:103080008A460646DDF8308012E0102C15D0182C48
:103090001ED0202C0FD1CDF80080CDE901474B4642
:1030A0002A465146304600F0F1F8301986B2AD1C80
:1030B00028780028E9D1BDE8FE8FCDF80080CDE961
:1030C00001474B462A465146304600F00DF8ECE7E2
:1030D000CDF80080CDE901474B462A46514630469F
:1030E00000F06AF8E1E700002DE9FF4F83B00446E5
:1030F000DDE9119B00904FEAD90000FB09FA33206B
:10310000002602902B48059A06EB061110F81130A4
:103110001278934245D100EB410001904178059827
:10312000407881423DD1049804994844401E83B2BE
:1031300004EB0900401E82B22046FFF703FC002783
:103140002DE00198002500EB070800BFBBF1000F40
:1031500098F802104FF0010000FA05F001EA0001B2
:1031600011D021B12046069A0499FFF7C7FC641CD0
:103170000098A4B2211A49450BD10498009C401C28
:1031800080B2049009E009B1069800E0109800F0C0
:10319000C7FA6D1CEDB2082DD8D37F1CFFB257457E
:1031A000CFD3761C0298B6B28642ABD307B0BDE847
:1031B000F08F00005C9400082DE9FF4F83B00446B7
:1031C000DDE9119B00904FEAD90000FB09FA0520C8
:1031D0000026029006EB860000EB46112A48059A6D
:1031E00010F811301278934245D100EB4100019064
:1031F00041780598407881423DD10498049948442B
:10320000401E83B204EB0900401E82B22046FFF745
:1032100099FB00272DE00198002500EB070800BF6F
:10322000BBF1000F98F802104FF0010000FA05F012
:1032300001EA000111D021B12046069A0499FFF756
:103240005DFC641C0098A4B2211A49450BD1049876
:10325000009C401C80B2049009E009B1069800E08F
:10326000109800F05DFA6D1CEDB2082DD8D37F1CCC
:10327000FFB25745CFD3761C0298B6B28642A9D387
:1032800007B0BDE8F08F0000229B00082DE9FF4F3A
:1032900083B00446DDE9119B00904FEAD90000FBA2
:1032A00009FA0520002602902B48059A06EB8611A4
:1032B00010F811301278934245D100EB4100019093
:1032C00041780598407881423DD10498049948445A
:1032D000401E83B204EB0900401E82B22046FFF775
:1032E00031FB00272DE00198002500EB070800BF07
:1032F000BBF1000F98F802104FF0010000FA05F042
:1033000001EA000111D021B12046069A0499FFF785
:10331000F5FB641C0098A4B2211A49450BD104980E
:10332000009C401C80B2049009E009B1069800E0BE
:10333000109800F0F5F96D1CEDB2082DD8D37F1C64
:10334000FFB25745CFD3761C0298B6B28642ABD3B4
:1033500007B0BDE8F08F0000949C00082DE9F74FFE
:1033600082B0002640F6C41A4FF0050BA6F13200D9
:1033700005B2002705FB05F8A7F1320004B204FBF3
:10338000048080B250452CD80498A8B301285BD0A3
:1033900002287DD003284FF6E07081466FF01303BA
:1033A0006FF00E0221462846CDF800B071D0FFF72D
:1033B0007EF908B14FF000096FF013030F22CDF82A
:1033C00000B021462846FFF772F908B14FF0000916
:1033D00003984A46384481B20298304480B2FFF7DD
:1033E0008DFB7F1CBFB2642FC6D3761CB6B2642E91
:1033F000BCD305B0BDE8F08FFFE76FF013034FF6C5
:10340000E0795A1D21462846CDF800B0FFF74FF964
:1034100008B14FF000096FF013030F222146284630
:10342000CDF800B0FFF743F908B14FF00009A4F15F
:103430000F000F28CCD80D3800FB00806428C7DBB4
:10344000193C04FB04803CE06FF013034FF6E07975
:103450005A1D21462846CDF800B0FFF728F908B1DB
:103460004FF000096FF013030F2221462846CDF8D4
:1034700000B0FFF71CF908B14FF0000905236FF009
:103480000E0221462846CDF800B0FFF710F901E002
:103490001AE050E008B147F6FF7905230F222146D4
:1034A0002846CDF800B0FFF702F908B147F6FF79DA
:1034B000A4F114000F288BD8233C04FB048064285B
:1034C00086DBE12882DD83E76FF013034FF4784950
:1034D0005A1D21462846CDF800B0FFF7E8F808B19C
:1034E0004FF000096FF013030F2221462846CDF854
:1034F00000B0FFF7DCF808B14FF0000905F1190042
:103500000F2805D804F12300052801D84FF0000941
:10351000A5F10A000F2805D804F12300052801D8D9
:103520004FF0000905F10F001E28CCD8193C052CDE
:103530007FF64CAF4CE7FFF7BAF808B14FF000093F
:103540006FF013030F2221462846CDF800B0FFF795
:10355000AEF808B14FF000090A20192300220090AC
:103560002FE72DE9FE4F9946DDE90D6714468A469F
:103570000546DDF830800CE0CDF800804B46514622
:103580002846CDE90167FFF715FD05EB560085B22A
:10359000641C2278002AEFD1BDE8FE8FFEB500241E
:1035A00010254FF4FC66CDE90045334641A20A21BF
:1035B0003C200294FFF7D5FFCDE9004533463EA2FB
:1035C0000A215A200294FFF755FD02223221C82019
:1035D000FFF7C4FE4FF6FF76CDE90045334638A22B
:1035E000322114200294FFF7BCFFCDE90045334699
:1035F00035A2322150200294FFF7B3FFCDE90045F8
:10360000334633A232218C200294FFF7AAFFCDE982
:103610000045334630A2502114200294FFF7A1FF49
:103620005021CDE9004533462DA208460294FFF70C
:1036300098FFCDE9004533462BA250218C200294FF
:10364000FFF78FFFCDE90045334629A26E211420F4
:103650000294FFF786FFCDE90045334626A26E218E
:1036600050200294FFF77DFFCDE90045334624A2A8
:103670006E218C200294FFF774FFCDE9004533469C
:1036800021A28C2114200294FFF76BFFCDE90045A5
:1036900033461FA28C2150200294FFF762FF8C2139
:1036A000CDE9004533461CA208460294FFF759FFB6
:1036B000FEBD000057535000BFECBDDDD2B300008B
:1036C0004374726C2B5500004374726C2B4E0000D7
:1036D0004374726C2B5709004374726C2B480000C2
:1036E0004374726C2B4200004374726C2B490000CF
:1036F0004374726C2B5A00004374726C2B5300009D
:103700004374726C2B4600004374726C2B430000B0
:103710004374726C2B5600004374726C2B41000092
:1037200010B50446000A00F019F8E0B2BDE81040F8
:1037300000F014B870B5084C0546002280212046E0
:10374000FDF70DFC284600F009F82046BDE8704062
:1037500001228021FDF703BC000C01402DE9F0415E
:10376000144E05464FF48077002239463046FDF767
:10377000F6FB0024002210213046FDF7F0FB28065E
:1037800001D5012200E0002220213046FDF7E7FBB1
:10379000012210213046FDF7E2FB6806641C050E8D
:1037A000E4B2082CE6D339463046BDE8F0410122A8
:1037B000FDF7D5BB000C0140FEB500241025CDE976
:1037C00000454FF4FC633DA20A213C200294FFF720
:1037D00051FC01223221C820FFF7C0FD4FF6FF76D1
:1037E000CDE90045334638A2322114200294FFF778
:1037F000B8FECDE90045334634A232215020029470
:10380000FFF7AFFECDE90045334631A232218C20CF
:103810000294FFF7A6FECDE9004533462DA25021C4
:1038200014200294FFF79DFE5021CDE90045334658
:1038300029A208460294FFF794FECDE900453346DD
:1038400026A250218C200294FFF78BFECDE9004583
:10385000334623A26E2114200294FFF782FECDE9A5
:10386000004533461FA26E2150200294FFF779FED7
:10387000CDE9004533461CA26E218C200294FFF74F
:1038800070FECDE90045334618A28C211420029425
:10389000FFF767FECDE90045334615A28C21502085
:1038A0000294FFF75EFE8C21CDE90045334611A25C
:1038B00008460294FFF755FEFEBD0000CAFDD7D6AC
:1038C000BFECBDDDD2B300005B315D005B325D005B
:1038D0005B335D005B345D005B355D005B365D0036
:1038E0005B375D005B385D005B395D005B2A5D0026
:1038F0005B305D005B235D0070B586B0002423481B
:103900000094019402940394816941F02001816143
:10391000816901F020010491816941F00401816114
:10392000816901F004010491816941F0080181611C
:103930008069174E00F008000490012240F20B410C
:103940003046FDF70CFB00224FF480413046FDF776
:1039500006FB242001258DE8310069460D48FDF75E
:10396000FDF944F20B40CDE900050320CDE902400A
:1039700069463046FDF7F2F94FF460508DE83100AA
:1039800069463046FDF7EAF906B070BD0010024006
:10399000000C01400008014010B58CB0242168469D
:1039A000FCF78EFC0024164809944FF080410A94DD
:1039B000C0E900144FF6FF71C0E90241046184615F
:1039C0000320CDE9000401200221CDE90204049185
:1039D000CDE905400794694609480894FEF74AFC7A
:1039E00008B172B6FEE7099409A905480A94FEF7E2
:1039F000F5FA002801D072B6FEE70CB010BD000049
:103A0000AC01002010B58CB024216846FCF758FCAE
:103A100000241648099414490A94C0E900144FF68A
:103A2000FF71C0E90241046184610320CDE9000413
:103A30000120CDE902040494CDE905400220CDE93E
:103A4000074069460948FEF715FC08B172B6FEE763
:103A5000099409A905480A94FEF7C0FA002801D084
:103A600072B6FEE70CB010BD00040040F401002067
:103A700010B500220B490C4801F040F908B1FCF7E1
:103A8000DBFE0A49084801F00CFB08B1FCF7D4FE44
:103A9000054801F05BFB002803D0BDE81040FCF7AF
:103AA000CBBE10BD000000203C02002064000020BE
:103AB000FEE7FEE710B5FEF727FE01281AD0022820
:103AC0001AD003281BD004281FD005281FD0062891
:103AD0001FD007281FD008281FD009281FD00A2868
:103AE0001FD00B281FD00C281FD12020BDE810406C
:103AF00000F098BE4720F9E70221092001E00221E9
:103B00001420BDE8104000F0BBBE4B20EEE7522071
:103B1000ECE74620EAE74320E8E75620E6E74A20BC
:103B2000E4E75820E2E75A20E0E710BD10B5FEF7C1
:103B3000EBFD01281BD002281BD003281BD0042832
:103B40001BD005281BD006281BD007281BD008280F
:103B50001BD009281BD00A281BD00B281FD00C28EB
:103B600022D10221BDE81040202000F089BE312082
:103B700016E0322014E0332012E0342010E035202B
:103B80000EE036200CE037200AE0382008E039202B
:103B900006E00221252000F073FE2A2000E03020FC
:103BA000BDE8104000F03EBE10BD10B5FEF7ACFD04
:103BB00001281BD002281CD003281DD004281ED0A9
:103BC00005281FD0062820D0072821D0082822D079
:103BD000092823D00A2824D00B2825D00C2826D148
:103BE00001210420BDE8104000F04ABE0121182048
:103BF000F8E701211120F5E701211A20F2E7012160
:103C00000B20EFE701210520ECE701210C20E9E77B
:103C100001211D20E6E701211620E3E7012109200B
:103C2000E0E701210620DDE701211920DAE710BDD8
:103C30002DE9F84F044640F68F7B48F60F794FF494
:103C400080684FF0000ABDE1B0F8441011F00F0594
:103C500039D030F8256031047ED530F8251001EADE
:103C60000B0141F0800120F8251005EB850004EBE5
:103C7000C00797F85C0107F5A87700286DD0F878A1
:103C800002286BD03978226832F8210048F68F7309
:103C9000184048F2C003184322F821003978206800
:103CA00030F82120B0F8503052047DD5022202EBCA
:103CB000C1015A1808EB4201415A8905890D00914A
:103CC00073D03A89DDE0C9062BD4018801EA0901E5
:103CD00041F400410180206804F11005B0F8503033
:103CE000217C022202EBC1015A1808EB4201405A22
:103CF000C0F30900E062616A084460620021204666
:103D0000FDF7EFF9607B00289DD0A86900289AD1C3
:103D1000607B216840F08000A1F84C0084F80DA081
:103D200050E1018804F5A8750A0521D5B0F85020A6
:103D30002B78062101EBC3010A4408EB4201405AEB
:103D400004F52671C0F30903EB61EA88206802F0EC
:103D5000CBF82068018802E0AEE06EE07EE001EA88
:103D60000B0141F0800101802046FDF705FE29E1AD
:103D70000904D5D5018801EA0B0141F080010180D9
:103D80002068B0F850202B78062101EBC3010A44CB
:103D900008EB4201405A83059B0DEB6110D0696925
:103DA00071B1EA88206801E05FE05DE002F09CF814
:103DB000E96968690844686100212046FDF79AF9BD
:103DC000216808880205ABD4C0F301300328A7D0CE
:103DD000B1F850000844B0F80C14C1F30901A0F880
:103DE0000C142A6900F20C403E2A09D95109D20666
:103DF00000D1491E02884FF4004343EA812109E0C3
:103E0000B2B15108D20700D0491C02884FF6FF73A7
:103E100003EA81210A430280216808884BF68F72E9
:103E2000104080F4405048F2800210430880C9E0FE
:103E3000018841F400410180EEE72068B0F850208D
:103E40003B78062101EBC3010A4408EB4201415AC9
:103E50008905890D009118D0FA8812E0324639465A
:103E60002046FDF7A3F900900FE0062202EBC10106
:103E70005A1808EB4201415A8905890D009104D076
:103E80007A897969009B02F02FF8F8690099084453
:103E9000F8617969009808447861B86918B139699E
:103EA0000098814204D939782046FDF723F903E0D0
:103EB0003946206801F088FD30062ED505EB8500D7
:103EC00004EBC001206830F8252002EA090242F420
:103ED000004220F82520C87C103101281ED0F005B2
:103EE0006CD42068B0F850300D78022202EBC50285
:103EF0001A4408EB4202805A8A69C0F309008242E0
:103F000055D9121A8A6154D04A6902444A61CA6971
:103F10001044C861206801F057FD53E0C1F818A0B3
:103F2000087B524608B3700620D5487810B10128A6
:103F300012D03AE02068B0F8502010440A7800EB24
:103F40000210B0F80424C2F30902A0F80424B0F867
:103F5000042442F4004206E02068B0F850301844CF
:103F60000B7800EB0310A0F804241EE04B782068C7
:103F700013B1012B11D018E0B0F8502010440A788A
:103F800000EB0210B0F80C24C2F30902A0F80C24D4
:103F9000B0F80C2442F4004205E0B0F85030184468
:103FA0000B7800EB0310A0F80C24097802E0C1F8AC
:103FB00018A0E9B22046FDF794F803E03246204607
:103FC000FDF767F92068B0F8441009043FF53CAEEE
:103FD0000020BDE8F88F7047002000F095B9000080
:103FE00010B5134C11488021206010206060002023
:103FF000C4E90201490021618900C4E90510C80033
:10400000E0612046FCF7BEFC2046FCF71FFEA4F151
:10401000480000228462606201210D20FDF710F843
:10402000BDE810400D20FCF7FDBF0000300002404D
:10403000400A002070B5084C00256570FCF794FF1D
:10404000C4E90605A5700120E070257165710620A0
:10405000A071E571257270BD8C0100202DE9F0473B
:10406000FCF782FF6C4CA169411A1E292ED3A06176
:10407000E069DFF8A881401CE061607800260C252B
:104080004FF4B4794FF0FF3708281FD2DFE800F073
:104090001E040A26496494A7FFF79EFF2079D8F8EA
:1040A00000104DE0A178304661F3070000F02CF9D4
:1040B00000F098F9E078A17800EB80000844C0B2E5
:1040C000A070FF2804D3FF20A070E770BDE8F08740
:1040D0000028FBD1A6700120E070F7E700264F46CC
:1040E0004FF4B470704390FBF5F0A18A802208442D
:1040F00090FBF7F107FB110080B2FF21FEF746FAB3
:104100000146B0B200F01CF9761C0C2EE8DB00F082
:1041100069F9A08AC01CB0FBF7F107FB1100A0826F
:10412000D4E7FFF759FF2079D8F8041000F008F918
:104130002079D8F80810401CB0FBF5F205FB1200FE
:1041400000F0FEF800F04EF92079401CB0FBF5F1CC
:1041500005FB11002071B9E7DFF8C480DFF8C4A0C7
:1041600000256079284402F022FD3A4603F047FA20
:1041700002F068FA0022434602F0B4FA00225346E5
:1041800002F040FD02F0E6FCC0B2314660F30701E8
:10419000C0F1FF0060F31741A8B200F0D1F86D1C28
:1041A0000C2DDEDB00F01EF96079401CB0FBF9F24B
:1041B00009FB1200607189E700240325FCF728F849
:1041C000C0B2314660F30701B0FBF5F060F30F2198
:1041D000A0B200F0B5F8641C0C2CEFDB18E0FFF780
:1041E000FBFE0024FCF714F890FBF5F105FB110031
:1041F000C6B2FCF70DF8394660F3070160F30F21F2
:1042000060F31741304600F09BF8641C032CE9DB97
:10421000BDE8F04700F0E6B88C010020389F0008A8
:104220000000F03F00C05F40F0B50020DFF85CC048
:10423000014601240CF1240301EB41021CF8025059
:1042400062442D045678927845EA062515431722D4
:104250003C261E2704FA02FE1EEA050F02D023F8B0
:10426000106001E023F81070401C521EF2D5491C6A
:1042700089B20C29E0D300214FF4B872904203D2E6
:1042800023F81010401CF9E7F0BD0000840A00205C
:104290001FB51B48816941F001018161816901F00D
:1042A00001010091816941F008018161816901F09A
:1042B00008010091816941F400618161816901F423
:1042C00000610091416941F0010141614069694625
:1042D00000F00100002002904FF480400090022086
:1042E0000190032003900748FCF738FDFFF778FEA4
:1042F00000F090F8FFF770FEBDE81F40FFF794BF95
:1043000000100240000C014011B5084BBDF8002020
:104310009DF80210002000BF00EB40041C44401C2C
:10432000228080B2A1700C28F6D318BD840A002028
:10433000024948700020C861704700008C010020CD
:1043400003B50C2809D2054900EB40000844BDF82C
:10435000041001809DF8061081700CBD840A0020B5
:1043600070B51F4D0646E869B0FBF1F201FB120083
:1043700038B9A8790C21401CB0FBF1F201FB120006
:10438000A871FFF729FE0024A879201A00D5404221
:10439000C0B202281BD8AB225043401EC0B2C6F3A5
:1043A00007234343FF22B3FBF2F363F30F21F3B27E
:1043B0004343B3FBF2F363F30701C6F307434343FD
:1043C000B3FBF2F060F317412046FFF7B9FF641C1E
:1043D000A4B20C2CD8D3BDE8704000F003B80000A4
:1043E0008C01002010B5094C207808B1022010BDC6
:1043F000FFF71AFF01202070054ABDE810404FF476
:10440000B8730421A2F1B000FDF726BE69010020B7
:10441000A80A002030B58FB01C2108A8FBF750FF78
:1044200020216846FBF74CFF184D17480024C5E9CA
:1044300000045920C5E902402C616C612846AC613A
:10444000FEF75AF86020CDE908040A940B940C9406
:104450000D94042208A928460E94FDF7E7FF009466
:104460004FF40050CDE904400294400007900194BD
:10447000039469462846FDF787FD2868416C41F49E
:10448000004141640FB030BD002C0140F80900200C
:104490007047FCF76FBD30B595B028216846FBF733
:1044A0000FFF14210AA8FBF70BFF18210FA8FBF739
:1044B00007FF01210804CDE9001000240294022521
:1044C0000491CDE907504FF4E01009906846FDF7DC
:1044D000B7FB08B172B6FEE70F20CDE90A054FF42D
:1044E0008060CDE90C4002210AA80E94FDF7ECFA99
:1044F00008B172B6FEE7102014940F900FA8FDF7D4
:104500006DFA002801D072B6FEE715B030BD7047D5
:10451000F0B50268204C214D214E224F224B4FF026
:10452000804CA04209D0984207D0604505D0A842EF
:1045300003D0B04201D0B84204D122F0700E4A68D4
:1045400042EA0E02A04209D0984207D0604505D049
:10455000A84203D0B04201D0B84203D122F4407542
:10456000CA682A434D6922F080022A4302608A68A1
:10457000C2620A688262A04201D0984201D10969F0
:104580000163012141610169C90703D0016921F07B
:1045900001010161F0BD0000002C01400004004059
:1045A00000080040000C00400034014010B501F04C
:1045B0001F030121046A99408C430462016A9A40F6
:1045C0001143016210BD10B501F00F030421046A0C
:1045D00099408C430462016A9A401143016210BD04
:1045E00010B5446A616A814201D101200DE0A16ADF
:1045F000814201D1022008E0E16A814201D1042018
:1046000003E0216B814201D1082020772046FDF78D
:10461000BBFF0020207710BD10B5446A0121626AFB
:10462000824205D121778069A8B984F8421012E04E
:10463000A26A824206D102222277806958B984F8A0
:10464000431008E0E26A824205D1042222778069A1
:1046500008B984F844102046FDF77CFF002020773D
:1046600010BD10B5446A0121626A824203D12177EC
:1046700084F842100EE0A26A824204D10220207720
:1046800084F8431006E0E26A824203D104202077D6
:1046900084F844102046FDF7C8FE0020207710BDA6
:1046A000F0B5036A026A22F001020262426884697C
:1046B000124E24F073050C682C4323F002058B681E
:1046C0002B430D4DA84201D0B04205D123F008077D
:1046D000CB683B4323F00403A84201D0B04205D18C
:1046E0004D6922F4407215438A692A43426084610D
:1046F000496841630362F0BD002C01400034014071
:10470000F0B5026A036A23F0100303624368846908
:104710000D6824F4E64444EA05248D6822F0200262
:1047200042EA05120F4D104EA84201D0B04206D108
:10473000CF6822F0800242EA071222F04002A8422B
:1047400001D0B04207D14D6923F4406343EA8503A9
:104750008D6943EA8503436084614968816302622D
:10476000F0BD0000002C014000340140F0B5026AA9
:10477000036A23F4807303624368C46922F40072FD
:1047800024F073050C68124E2C438D6842EA052212
:104790000E4DA84201D0B04206D1CF6822F400628B
:1047A00042EA072222F48062A84201D0B04207D137
:1047B0004D6923F4405343EA05138D6943EA051319
:1047C0004360C4614968C1630262F0BD002C0140CE
:1047D0000034014030B5046A026A22F48052026259
:1047E0004268C3690D6823F4E64343EA05238D68F4
:1047F00024F4005444EA0534084DA84202D0084D80
:10480000A84204D14D6922F4804242EA85124260F6
:10481000C36149680164046230BD0000002C01409E
:104820000034014010B500F041FF18B1BDE8104060
:1048300000F002B8022010BD70B5054601F03EFB45
:10484000B8B100F0C5FF0C4C08222146A5700B48FA
:1048500000F0DDF910F0FF000AD10A20FCF76CFA35
:104860000020A07008222146044800F0D0F9C0B210
:1048700070BD022070BD00006A0100203C020020D3
:1048800070B50E46054601F019FBC8B100F0A0FF57
:104890000C4C082221462670A5700B4800F0B7F991
:1048A00010F0FF000BD10A20FCF746FA0020207020
:1048B000A07008222146044800F0A9F9C0B270BDDA
:1048C000022070BD6A0100203C02002010B5D0F823
:1048D000B42252689047002010BD134610B50A4616
:1048E000002100F026FB002010BD134610B50A463B
:1048F000002100F0B9FB002010BD10B50446802156
:1049000000F097FB2046BDE81040002100F091BB6D
:1049100010B505210023C0F894121A46194600F07C
:1049200008FB002010BD10B50223C261C0F894320C
:10493000026213460A46002100F096FB002010BDDB
:1049400010B504210023C0F894121A46194600F04D
:104950008BFB002010BD000010B50A46024903A0E1
:1049600000F0E2F8004810BD00050020484944204E
:10497000436F6E6669670000122008800048704728
:104980002000002010B50A46024903A000F0CCF830
:10499000004810BD00050020484944204B6579625D
:1049A0006F61726420496E746572666163650000B0
:1049B00004200880004870471C00002010B50A46FB
:1049C000024903A000F0B0F8004810BD0005002027
:1049D00053544D6963726F656C656374726F6E6971
:1049E0006373000010B50A46024903A000F09CF86A
:1049F000004810BD0005002053544D3332204B6554
:104A000079626F617264000010B51A2008800A484C
:104A10000168001D0468001D0068081809D00822FC
:104A20000649FDF755FE0549042210312046FDF7E1
:104A30004FFE0248801E10BDE8F7FF1F3600002021
:104A4000F8B504460020ADF8000048880D46010A7C
:104A5000082948D2DFE801F04704091747473C45D9
:104A6000D4F8B012207C0A6819E0207C02260028C5
:104A7000D4F8B40205D0C16A68468847014646703A
:104A80003EE0816AF8E7C0B206282CD2DFE800F0E9
:104A9000030A1014181CD4F8B002426805E06946F5
:104AA00090471CE0D4F8B0028268E2B1207CF6E7BF
:104AB000D4F8B002C268F8E7D4F8B0020269F4E7AB
:104AC000D4F8B0024269F0E7D4F8B0028269ECE7AA
:104AD000207C40B9D4F8B402416B6846884701464F
:104AE0000EE0207C20B129462046FFF706FFF8BDE6
:104AF000D4F8B402016B6846884701460720487025
:104B0000BDF8000048B1EA8852B1824200D902469D
:104B1000ADF800202046FFF706FFE8880028E6D120
:104B20002046FFF70DFFF8BD70B5002300281ED00A
:104B30000446002502E06D1CEDB2641C2678002EB0
:104B4000F9D1022404EB450414801278CA545B1C8A
:104B50000322CA5400245B1C06E0CA545B1CDAB270
:104B60008C54521CD3B2401C0278002AF5D170BD7F
:104B700001004FF0000004D0012901D0022901D02A
:104B80000220704701207047D0F8B802002101735D
:104B90000846704770B50446812100F0CDF8002525
:104BA000E562D4F8B80218B100F02DFCC4F8B85290
:104BB000002070BD0A2101800048704714010020C8
:104BC00022210180004870479C00002022210180A2
:104BD00000487047C0000020222101800048704733
:104BE000E400002010B5044608230322812100F0D0
:104BF00094F90120E062102000F006FCC4F8B8022D
:104C000018B100210173084610BD022010BD10B577
:104C1000134690F89C42D0F8B822032C07D1147B9D
:104C20002CB9012414730A46812100F01DFA0020DA
:104C300010BD000038B503460022D0F8B802ADF828
:104C4000002014460A7812F0600216D0202A4AD1B9
:104C50004A78022A0ED0032A06D00A2A06D00B2A46
:104C600041D18978016042E001222BE04988090A9C
:104C700041603CE00122011D25E04A7832B1062A5C
:104C80000BD00A2A23D00B2A2DD128E093F89C02BE
:104C9000032828D10222694615E048882222B2EB77
:104CA000102F05D1CA883F2A00D93F22124809E0B7
:104CB0002122B2EB102F16D10F48CA881838092AC2
:104CC00000D9092201461846FFF72DFE0FE093F8A0
:104CD0009C22032A07D1012200F10801F3E793F88F
:104CE0009C22032A05D01846FFF707FE022420461F
:104CF00038BD89788160FAE72001002010B580B1C5
:104D0000D0F8B43213B10023C0F8B43209B1C0F8FE
:104D1000B012012180F89C12027000F0BBF8002054
:104D200010BD022010BD10B5D0F8C002FCF711FA7A
:104D3000BDE81040FFF71CBF10B5D0F8C002FCF76B
:104D4000E3F9BDE81040FFF713BF2DE9F041174626
:104D5000044651B1D4F8B40242691AB194F89C02E5
:104D6000032851D00220BDE8F081D4F89432002508
:104D700004F11400022B03D0042B3AD0C3B33CE05F
:104D8000D0E903639E4207D9F11AC1608AB239465D
:104D90002046FFF7AAFD12E08068B0FBF3F103FBA9
:104DA000110199B9984211D3D4F8981288420DD2C2
:104DB000002211462046FFF798FDC4F898520023C0
:104DC0001A461946204600F0B4F816E0D4F8B402AA
:104DD000C16829B194F89C02032801D12046884774
:104DE0008021204600F025F92046FFF791FD04E0E0
:104DF000FFE78021204600F01CF994F8A00201286A
:104E000004D184F8A05201E0204690470020AAE790
:104E100070B51546044649B1D4F8B40282691AB196
:104E200094F89C02032830D0022070BDD4F894126C
:104E300004F5AA70032902D005291ED027E0D0E985
:104E400003218A420BD9531AC3600846834200D318
:104E500003469AB229462046FFF73FFD17E0D4F8F3
:104E6000B402016929B194F89C02032801D12046BB
:104E700088472046FFF764FD09E000200146C4F89A
:104E80009402204600F0D5F801E02046904700202B
:104E900070BD000010B517490446C1F8D402C0F82F
:104EA000C01215480860082008710220887100208F
:104EB0008872C87208730846FCF7B4FC08B1FBF7A7
:104EC000BBFC0022D4F8C0021823114604F530744C
:104ED000FCF7E8F85823002280212068FCF7E2F86C
:104EE0004FF48073002281212068FCF7DBF800205A
:104EF00010BD000014070020005C00400A0601F00D
:104F00007F01D0F8C00201EB810100EBC10001D5A7
:104F1000807C704790F85201704710B51C461346CC
:104F2000D0F8C0022246FCF750FBBDE81040FFF766
:104F30001FBE10B5D0F8C002FCF773FBBDE81040EF
:104F4000FFF716BE70B50022044640231146FFF756
:104F5000E4FF40260125C4F8646133460022802125
:104F60002046C4F85851FFF7D8FF6662A56184F85F
:104F70009C520020C4F894026060C4F8A402D4F8E3
:104F8000B80228B1D4F8B402002142682046904704
:104F9000002070BD90F89C12042903D190F89D1256
:104FA00080F89C120020704710B590F89C120329DD
:104FB00004D1D0F8B412C96901B18847002010BDEE
:104FC00001740020704710B5D0F8C002FCF7C1FC96
:104FD000BDE81040FFF7CCBD70B5044600F52A705F
:104FE000054600F04AF80120C4F89402B4F8AE0275
:104FF000C4F8980294F8A80210F01F010AD0012901
:105000000DD0022910D000F08001204600F011F8E8
:10501000002070BD2946204600F09DF8F8E729469B
:10502000204600F0C9F9F3E72946204600F01CF9B4
:10503000EEE710B5D0F8C002FCF70AFBBDE810405F
:10504000FFF796BD10B5D0F8C002FCF79CFCBDE898
:105050001040FFF78DBD90F89C1280F89D1204213E
:1050600080F89C120020704710B5D0F8C002FCF701
:1050700027FBBDE81040FFF77BBD0A7802704A7835
:1050800042708A78CB7802EB032242800A794B790E
:1050900002EB032282808A79C97902EB0121C18067
:1050A00070470246002011B1C2F8B41270470220C6
:1050B000704710B5D0F8B42202241AB11268904794
:1050C00000B90024204610BD70B50E461E4D8978EB
:1050D00004462970012931D894F89C0202280BD08B
:1050E00003280FD031462046FFF707FC29782046D9
:1050F000BDE87040FFF7EABBD9B10320616084F8D6
:105100009C0209E071B16068884212D0C1B22046A9
:10511000FFF7DCFB297861602046FFF7CAFF022811
:105120000CD006E0022084F89C0220466160FFF764
:10513000CDFB2046BDE87040FFF702BC314620465B
:10514000BDE87040FFF7D9BB6000002010B5FFF745
:1051500079FF002010BD2DE9F0410A78002612F0F9
:10516000600208D0202A01D0402A70D1D0F8B422A1
:10517000926890476DE04B78002201250A2B66D299
:10518000DFE803F0405D6557650805652C29FFF7EA
:1051900057FC5EE004468888D8B9C888C8B94888F2
:1051A000802816D200F07F0794F89C02032810D0C4
:1051B00084F89E7239462046FFF705FF2046FFF728
:1051C000BFFB1FB1022084F89C0242E084F89C528D
:1051D0003FE020463BE0FFF777FF3AE0CB88012B2A
:1051E00035D190F89C32012B04D0022B02D0032B36
:1051F0002DD104E08260012200F1080116E00122B5
:10520000011D13E090F89C22012A03D0022A01D04C
:10521000032A1CD1CA88022A19D1C560D0F8A41269
:1052200009B10321C160022200F10C01FFF77BFBF1
:105230000FE0498801290CD1C0F8A45211E090F880
:105240009C32012B08D0022B06D0032B04D0FFF791
:1052500054FB3046BDE8F08149880129F9D1C0F8F6
:10526000A422FFF76DFBF4E72DE9F0410A4604465E
:1052700010780027097910F060030AD0202B01D0A4
:10528000402B50D1D4F8B402114683682046984789
:105290008FE0C0F34110012806D05078D0B3012828
:1052A0002AD003283FD107E0D4F8B402114683681E
:1052B0002046BDE8F041184794F89C02022802D02D
:1052C000032872D10AE071B380296ED02046FFF71F
:1052D000B0FE80212046FFF7ACFE6AE0508838B966
:1052E00031B1802904D0D08810B92046FFF7A1FE43
:1052F0002046FFF725FB5CE094F89C020228E2D0F0
:10530000032852D1508898BB4806F1D02046FFF7B9
:105310000AFDEDE7FFE794F89C020026022803D07F
:10532000032842D112E040E009B180293DD10806AE
:1053300001F07F0000EB800004EB800101D5143107
:1053400001E001F5AA7102220E602AE0080601F0D0
:105350000F0000EB800004EB80000AD5806920B3C9
:1053600001F07F0000EB800004EB800514350BE0BA
:105370001FE0D0F85801C0B101F07F0000EB8000C1
:1053800004EB800505F5AA7541B1802906D02046B9
:10539000FFF7B4FD10B10120286000E02E6002226A
:1053A00029462046FFF7BFFA03E011462046FFF7E3
:1053B000A4FA3846BDE8F08170B5054608780C4679
:1053C00010F0600003D0202801D0402816D195F8B5
:1053D0009C02012803D0022801D003280ED1207995
:1053E00001280BD8D5F8B402826828469047E18896
:1053F000014306D12846FFF7A3FA02E02846FFF74B
:105400007CFA002070BD70470048704700070020FC
:105410002DE9F0470C78002630F8243048F68F123A
:105420001340CA78002A78D0012A7CD0022A02D000
:10543000032A75D0012648F28002134320F8243055
:105440000D7830F8253048F68F7423402B431343F2
:1054500020F825300D7B48F2C00948F6BF734CF2A6
:10546000800A4BF68F77EDB3CD7891F800C0022D0E
:1054700030F82C507DD048F68F6805EA08051543B2
:1054800020F82C50B0F8505091F800C0054405EBBE
:105490000C15B1F808C02CF0010CA5F800C4B0F848
:1054A000505091F800C0054405EB0C15B1F80AC046
:1054B0002CF0010CA5F808C44D78002D7ED00D7895
:1054C00030F825C05FEA4C4C07D530F825C00CEA0F
:1054D000040C4CEA0A0C20F825C091F800C030F802
:1054E0002C5000E022E06D0606D530F82C50254007
:1054F00045EA090520F82C50CC780D78012C30F8BD
:10550000254004EA03047CD084F02003134320F8F0
:105510002530C1E001E006E002E043F400738AE7D1
:1055200043F4C06387E743F4806384E74D784DB369
:10553000B0F850500F78054405EB0715CF8827F0D9
:105540000107A5F800740F7830F827506D0606D5CE
:1055500030F82750254045EA090520F82750CC7837
:10556000012C07D00C7830F82410194081F020016C
:1055700004E064E00C7830F824101940114320F85E
:10558000241090E0B0F850300D78034403EB05137D
:10559000CD8825F00105A3F80854B0F850300D78F7
:1055A000034403EB0513B3F80C54C5F30905A3F842
:1055B0000C540D6903F20C433E2D00E045E00BD97D
:1055C0004FEA551CED0601D1ACF1010C1D884FF4DA
:1055D000004848EA8C2C0BE035B34FEA550CED0738
:1055E00001D00CF1010C1D884FF6FF7808EA8C2CD5
:1055F00045EA0C051D800D7830F825305B0408D590
:1056000000E046E030F82530234043EA0A0320F862
:105610002530097861B130F821303B4083F40053E4
:10562000134320F821303EE01D8845F40045E1E7B2
:105630000188394081F440511143018033E0254015
:1056400048F2801845EA08051AE791F800C030F8DA
:105650002C506D0406D530F82C50254045EA0A053B
:1056600020F82C5091F800C030F82C506D0606D56B
:1056700030F82C50254045EA090520F82C500D78CB
:1056800030F825403C4084F44054144320F8254031
:1056900070E7144320F825400B7830F82310394088
:1056A000114320F823103046BDE8F08708387328EE
:1056B0006FD2DFE800F08987858B8B858B8B8B8B96
:1056C0008B8B8B8B8B8B8B8B8B8B8B8B8B8B838B32
:1056D0008B8B8B8B8B8B8B8B8B8B8B8B8B8B4C3AAA
:1056E0003C3E40424446484A8B8B8B8B8B8B8B4E87
:1056F00050525456585A5C5E60626466686A6C6FB9
:1057000071737577797B7D7F818B8B8B8B8B8B4EC8
:1057100050525456585A5C5E60626466686A6C6F98
:1057200071737577797B7D7F81001E2070471F2004
:105730007047202070472120704722207047232087
:105740007047242070472520704726207047272067
:1057500070470420704705207047062070470720D7
:10576000704708207047092070470A2070470B20B7
:1057700070470C2070470D2070470E2070470F2097
:105780007047102070471120704712207047132077
:1057900070471BE01420FBE71520F9E71620F7E718
:1057A0001720F5E71820F3E71920F1E71A20EFE7B3
:1057B0001B20EDE71C20EBE71D20E9E72C20E7E7A5
:1057C0002820E5E72B20E3E72A20E1E70020DFE7B8
:1057D0000248002101604160704700006A0100201A
:1057E000002070472DE9F04391F80C804F780A783B
:1057F00048F6BF7C4BF68F7948F2800348F2C0052B
:105800004CF2800648F68F74B8F1000F28D0002FB4
:1058100030F822704FEA474748D0002F05DA30F8B9
:1058200022702740374320F822700A7830F822701F
:105830007F0605D530F8227027402F4320F82270CC
:105840000D7830F825202240324320F825200C78AE
:1058500030F8242002EA0C021A4320F824201AE02F
:105860007FB130F82260760605D530F822602640F8
:105870002E4320F822600A7830F8221001EA0C0149
:105880000EE030F822506D0405D530F82250254046
:10589000354320F822500A7830F8221001EA090135
:1058A000194320F822100020BDE8F083002F05DA0C
:1058B00030F822702740374320F822700A7830F8F9
:1058C0002260760605D530F8226026402E4320F867
:1058D00022600E7830F8262022402A4320F8262025
:1058E0000C7830F8242002EA09021A4320F8242018
:1058F000C1E70020704700207047012120F8401FB9
:1059000000210180818001820846704730F8401FE5
:1059100021F43F410180002070470020704730B5DE
:105920000A7BB2BB4A7848F68F7548F28004C2B150
:105930000B7830F82320520607D530F823202A4070
:1059400048F2C0052A4320F82320CA78012A20D033
:105950000A7830F8221048F6BF73194081F0200110
:1059600014E00A7830F822305B0407D530F8223092
:105970002B404CF280052B4320F822300A7830F877
:1059800022104BF68F73194081F44051214320F8C7
:105990002210002030BD10B54A780978002A48F25C
:1059A000800330F8212005D048F6BF74224082F0F1
:1059B000100204E04BF68F74224082F480521A43A6
:1059C00020F82120002010BD2DE9F0470D464B782E
:1059D000097B04464FF0000948F68F7248F2800AAE
:1059E0004FF400474FF6FF78012B09D000296FD004
:1059F000E87802286DD001286CD00120BDE8F0873E
:105A0000AE692869864200D9064691B1E978022933
:105A10001ED0286A801B2862287834F82010490696
:105A2000B4F85010214401EB001073D5A0F80C64B9
:105A300016E1B3B2EA882046696900F073FAB4F857
:105A400050002978204400EB0110A0F804640DE117
:105A5000296A814277D9297834F82100104048F228
:105A60008012104324F82100286A801B28622878BD
:105A700034F820104906697871D511B101292AD06E
:105A800030E0B4F85010214401EB0010B0F80C14D1
:105A9000C1F30901A0F80C1400F20C403E2E07D906
:105AA0007109F20600D1491E028847EA812107E008
:105AB0004EB17108F20700D0491C028808EA812122
:105AC0000A4302800EE0018841F40041018009E0B0
:105AD000F1E020E195E1B4F85020111901EB00103C
